{
  "contractName": "ParsSwap",
  "abi": [
    {
      "inputs": [
        {
          "internalType": "contract Token",
          "name": "_token",
          "type": "address"
        }
      ],
      "stateMutability": "nonpayable",
      "type": "constructor"
    },
    {
      "anonymous": false,
      "inputs": [
        {
          "indexed": false,
          "internalType": "address",
          "name": "Account",
          "type": "address"
        },
        {
          "indexed": false,
          "internalType": "address",
          "name": "Token",
          "type": "address"
        },
        {
          "indexed": false,
          "internalType": "uint256",
          "name": "amount",
          "type": "uint256"
        },
        {
          "indexed": false,
          "internalType": "uint256",
          "name": "rate",
          "type": "uint256"
        }
      ],
      "name": "TokenPurchaced",
      "type": "event"
    },
    {
      "anonymous": false,
      "inputs": [
        {
          "indexed": false,
          "internalType": "address",
          "name": "Account",
          "type": "address"
        },
        {
          "indexed": false,
          "internalType": "address",
          "name": "Token",
          "type": "address"
        },
        {
          "indexed": false,
          "internalType": "uint256",
          "name": "amount",
          "type": "uint256"
        },
        {
          "indexed": false,
          "internalType": "uint256",
          "name": "rate",
          "type": "uint256"
        }
      ],
      "name": "TokenSold",
      "type": "event"
    },
    {
      "inputs": [],
      "name": "name",
      "outputs": [
        {
          "internalType": "string",
          "name": "",
          "type": "string"
        }
      ],
      "stateMutability": "view",
      "type": "function",
      "constant": true
    },
    {
      "inputs": [],
      "name": "rate",
      "outputs": [
        {
          "internalType": "uint256",
          "name": "",
          "type": "uint256"
        }
      ],
      "stateMutability": "view",
      "type": "function",
      "constant": true
    },
    {
      "inputs": [],
      "name": "token",
      "outputs": [
        {
          "internalType": "contract Token",
          "name": "",
          "type": "address"
        }
      ],
      "stateMutability": "view",
      "type": "function",
      "constant": true
    },
    {
      "inputs": [],
      "name": "buyToken",
      "outputs": [],
      "stateMutability": "payable",
      "type": "function",
      "payable": true
    },
    {
      "inputs": [
        {
          "internalType": "uint256",
          "name": "_amount",
          "type": "uint256"
        }
      ],
      "name": "sellToken",
      "outputs": [],
      "stateMutability": "nonpayable",
      "type": "function"
    }
  ],
  "bytecode": "0x60806040526040518060400160405280601981526020017f506172735377617020496e7374616e742045786368616e6765000000000000008152506000908051906020019062000051929190620000d3565b506103e86002553480156200006557600080fd5b5060405162000d1d38038062000d1d83398181016040528101906200008b91906200019a565b80600160006101000a81548173ffffffffffffffffffffffffffffffffffffffff021916908373ffffffffffffffffffffffffffffffffffffffff160217905550506200028d565b828054620000e1906200020e565b90600052602060002090601f01602090048101928262000105576000855562000151565b82601f106200012057805160ff191683800117855562000151565b8280016001018555821562000151579182015b828111156200015057825182559160200191906001019062000133565b5b50905062000160919062000164565b5090565b5b808211156200017f57600081600090555060010162000165565b5090565b600081519050620001948162000273565b92915050565b600060208284031215620001ad57600080fd5b6000620001bd8482850162000183565b91505092915050565b6000620001d382620001ee565b9050919050565b6000620001e782620001c6565b9050919050565b600073ffffffffffffffffffffffffffffffffffffffff82169050919050565b600060028204905060018216806200022757607f821691505b602082108114156200023e576200023d62000244565b5b50919050565b7f4e487b7100000000000000000000000000000000000000000000000000000000600052602260045260246000fd5b6200027e81620001da565b81146200028a57600080fd5b50565b610a80806200029d6000396000f3fe60806040526004361061004a5760003560e01c806306fdde031461004f5780632397e4d71461007a5780632c4e722e146100a3578063a4821719146100ce578063fc0c546a146100d8575b600080fd5b34801561005b57600080fd5b50610064610103565b60405161007191906107c9565b60405180910390f35b34801561008657600080fd5b506100a1600480360381019061009c9190610636565b610191565b005b3480156100af57600080fd5b506100b86103c5565b6040516100c591906107eb565b60405180910390f35b6100d66103cb565b005b3480156100e457600080fd5b506100ed6105a8565b6040516100fa91906107ae565b60405180910390f35b600080546101109061094c565b80601f016020809104026020016040519081016040528092919081815260200182805461013c9061094c565b80156101895780601f1061015e57610100808354040283529160200191610189565b820191906000526020600020905b81548152906001019060200180831161016c57829003601f168201915b505050505081565b6000600254826101a19190610822565b9050804710156101b057600080fd5b81600160009054906101000a900473ffffffffffffffffffffffffffffffffffffffff1673ffffffffffffffffffffffffffffffffffffffff166370a08231336040518263ffffffff1660e01b815260040161020c91906106ee565b60206040518083038186803b15801561022457600080fd5b505afa158015610238573d6000803e3d6000fd5b505050506040513d601f19601f8201168201806040525081019061025c919061065f565b101561026757600080fd5b600160009054906101000a900473ffffffffffffffffffffffffffffffffffffffff1673ffffffffffffffffffffffffffffffffffffffff166323b872dd3033856040518463ffffffff1660e01b81526004016102c693929190610709565b602060405180830381600087803b1580156102e057600080fd5b505af11580156102f4573d6000803e3d6000fd5b505050506040513d601f19601f82011682018060405250810190610318919061060d565b503373ffffffffffffffffffffffffffffffffffffffff166108fc829081150290604051600060405180830381858888f1935050505015801561035f573d6000803e3d6000fd5b507fa8a7473f10e62cf9687e243de1c3ac8b3cbc3dd04b96826beb3a65b59538581433600160009054906101000a900473ffffffffffffffffffffffffffffffffffffffff16846002546040516103b99493929190610740565b60405180910390a15050565b60025481565b6000600254346103db9190610853565b905080600160009054906101000a900473ffffffffffffffffffffffffffffffffffffffff1673ffffffffffffffffffffffffffffffffffffffff166370a08231306040518263ffffffff1660e01b815260040161043991906106ee565b60206040518083038186803b15801561045157600080fd5b505afa158015610465573d6000803e3d6000fd5b505050506040513d601f19601f82011682018060405250810190610489919061065f565b101561049457600080fd5b600160009054906101000a900473ffffffffffffffffffffffffffffffffffffffff1673ffffffffffffffffffffffffffffffffffffffff1663a9059cbb33836040518363ffffffff1660e01b81526004016104f1929190610785565b602060405180830381600087803b15801561050b57600080fd5b505af115801561051f573d6000803e3d6000fd5b505050506040513d601f19601f82011682018060405250810190610543919061060d565b507f6ac75573ff3e8732900ce46cfef3ee09b1cfea978ff37a00b88cd1c80b02d90033600160009054906101000a900473ffffffffffffffffffffffffffffffffffffffff168360025460405161059d9493929190610740565b60405180910390a150565b600160009054906101000a900473ffffffffffffffffffffffffffffffffffffffff1681565b6000815190506105dd81610a1c565b92915050565b6000813590506105f281610a33565b92915050565b60008151905061060781610a33565b92915050565b60006020828403121561061f57600080fd5b600061062d848285016105ce565b91505092915050565b60006020828403121561064857600080fd5b6000610656848285016105e3565b91505092915050565b60006020828403121561067157600080fd5b600061067f848285016105f8565b91505092915050565b610691816108ad565b82525050565b6106a0816108f5565b82525050565b60006106b182610806565b6106bb8185610811565b93506106cb818560208601610919565b6106d481610a0b565b840191505092915050565b6106e8816108eb565b82525050565b60006020820190506107036000830184610688565b92915050565b600060608201905061071e6000830186610688565b61072b6020830185610688565b61073860408301846106df565b949350505050565b60006080820190506107556000830187610688565b6107626020830186610688565b61076f60408301856106df565b61077c60608301846106df565b95945050505050565b600060408201905061079a6000830185610688565b6107a760208301846106df565b9392505050565b60006020820190506107c36000830184610697565b92915050565b600060208201905081810360008301526107e381846106a6565b905092915050565b600060208201905061080060008301846106df565b92915050565b600081519050919050565b600082825260208201905092915050565b600061082d826108eb565b9150610838836108eb565b925082610848576108476109ad565b5b828204905092915050565b600061085e826108eb565b9150610869836108eb565b9250817fffffffffffffffffffffffffffffffffffffffffffffffffffffffffffffffff04831182151516156108a2576108a161097e565b5b828202905092915050565b60006108b8826108cb565b9050919050565b60008115159050919050565b600073ffffffffffffffffffffffffffffffffffffffff82169050919050565b6000819050919050565b600061090082610907565b9050919050565b6000610912826108cb565b9050919050565b60005b8381101561093757808201518184015260208101905061091c565b83811115610946576000848401525b50505050565b6000600282049050600182168061096457607f821691505b60208210811415610978576109776109dc565b5b50919050565b7f4e487b7100000000000000000000000000000000000000000000000000000000600052601160045260246000fd5b7f4e487b7100000000000000000000000000000000000000000000000000000000600052601260045260246000fd5b7f4e487b7100000000000000000000000000000000000000000000000000000000600052602260045260246000fd5b6000601f19601f8301169050919050565b610a25816108bf565b8114610a3057600080fd5b50565b610a3c816108eb565b8114610a4757600080fd5b5056fea26469706673582212202a9a0f8ff0d16f3d3372db006449f7dc7eb7b09b7010908a26709881fabba13264736f6c63430008020033",
  "immutableReferences": {},
  "source": "// SPDX-License-Identifier: MIT\r\npragma solidity ^0.8.2;\r\n\r\nimport './Token.sol';\r\n\r\ncontract ParsSwap {\r\n    string public name = \"ParsSwap Instant Exchange\";\r\n    Token public token ;\r\n    uint public rate = 1000;\r\n\r\n    event TokenPurchaced (\r\n        address Account,\r\n        address  Token,\r\n        uint amount,\r\n        uint rate\r\n    );\r\n\r\n    event TokenSold (\r\n        address Account,\r\n        address  Token,\r\n        uint amount,\r\n        uint rate\r\n    );\r\n\r\n\r\n\r\n    constructor(Token _token) {\r\n        token = _token;\r\n    }\r\n\r\n\r\n    function buyToken() public payable {\r\n    uint tokenAmount =(msg.value * rate);\r\n\r\n    require(token.balanceOf(address(this)) >= tokenAmount);\r\n    token.transfer(msg.sender, tokenAmount);\r\n\r\n    emit TokenPurchaced(msg.sender, address(token), tokenAmount, rate);\r\n    \r\n    }\r\n\r\n\r\n    function sellToken(uint _amount) public {\r\n        uint etherAmount = _amount/rate;\r\n\r\n        require(address(this).balance >= etherAmount);\r\n        require(token.balanceOf(msg.sender) >= _amount);\r\n\r\n        token.transferFrom(address(this), msg.sender, _amount);\r\n        payable(msg.sender).transfer(etherAmount);\r\n\r\n        emit TokenSold(msg.sender, address(token), _amount, rate);  \r\n    }\r\n}",
  "sourcePath": "E:\\programming\\Dapps\\pars-swap\\contracts\\ParsSwap.sol",
  "compiler": {
    "name": "solc",
    "version": "0.8.2+commit.661d1103.Emscripten.clang"
  },
  "schemaVersion": "3.4.3",
  "updatedAt": "2021-11-04T07:53:01.429Z",
  "networkType": "ethereum",
  "devdoc": {
    "kind": "dev",
    "methods": {},
    "version": 1
  },
  "userdoc": {
    "kind": "user",
    "methods": {},
    "version": 1
  }
}